{
  "_format": "hh-sol-artifact-1",
  "contractName": "TaskContract",
  "sourceName": "contracts/TaskContract.sol",
  "abi": [
    {
      "anonymous": false,
      "inputs": [
        {
          "indexed": false,
          "internalType": "address",
          "name": "recipient",
          "type": "address"
        },
        {
          "indexed": false,
          "internalType": "uint256",
          "name": "taskId",
          "type": "uint256"
        }
      ],
      "name": "AddTask",
      "type": "event"
    },
    {
      "anonymous": false,
      "inputs": [
        {
          "indexed": false,
          "internalType": "uint256",
          "name": "taskId",
          "type": "uint256"
        },
        {
          "indexed": false,
          "internalType": "bool",
          "name": "isDeleted",
          "type": "bool"
        }
      ],
      "name": "DeleteTask",
      "type": "event"
    },
    {
      "inputs": [
        {
          "internalType": "string",
          "name": "taskText",
          "type": "string"
        },
        {
          "internalType": "bool",
          "name": "isDeleted",
          "type": "bool"
        }
      ],
      "name": "addTask",
      "outputs": [],
      "stateMutability": "nonpayable",
      "type": "function"
    },
    {
      "inputs": [
        {
          "internalType": "uint256",
          "name": "taskId",
          "type": "uint256"
        },
        {
          "internalType": "bool",
          "name": "isDeleted",
          "type": "bool"
        }
      ],
      "name": "deleteTask",
      "outputs": [],
      "stateMutability": "nonpayable",
      "type": "function"
    },
    {
      "inputs": [],
      "name": "getMyTasks",
      "outputs": [
        {
          "components": [
            {
              "internalType": "uint256",
              "name": "id",
              "type": "uint256"
            },
            {
              "internalType": "string",
              "name": "taskText",
              "type": "string"
            },
            {
              "internalType": "bool",
              "name": "isDeleted",
              "type": "bool"
            }
          ],
          "internalType": "struct TaskContract.Task[]",
          "name": "",
          "type": "tuple[]"
        }
      ],
      "stateMutability": "view",
      "type": "function"
    }
  ],
  "bytecode": "0x608060405234801561001057600080fd5b50610c23806100206000396000f3fe608060405234801561001057600080fd5b50600436106100415760003560e01c806320df4581146100465780636e13f81814610062578063aaba290714610080575b600080fd5b610060600480360381019061005b919061078a565b61009c565b005b61006a6101c6565b60405161007791906109a8565b60405180910390f35b61009a600480360381019061009591906109f6565b610451565b005b600080805490509050600060405180606001604052808381526020018581526020018415158152509080600181540180825580915050600190039060005260206000209060030201600090919091909150600082015181600001556020820151816001019080519060200190610113929190610532565b5060408201518160020160006101000a81548160ff0219169083151502179055505050336001600083815260200190815260200160002060006101000a81548173ffffffffffffffffffffffffffffffffffffffff021916908373ffffffffffffffffffffffffffffffffffffffff1602179055507f1f54e1ba1832d428fbd7e7792beaf62b1fc5a382c207ffd614209c1413e94fda33826040516101b9929190610a86565b60405180910390a1505050565b60606000808054905067ffffffffffffffff8111156101e8576101e7610627565b5b60405190808252806020026020018201604052801561022157816020015b61020e6105b8565b8152602001906001900390816102065790505b5090506000805b60008054905081101561039757600015156000828154811061024d5761024c610aaf565b5b906000526020600020906003020160020160009054906101000a900460ff16151503610384576000818154811061028757610286610aaf565b5b9060005260206000209060030201604051806060016040529081600082015481526020016001820180546102ba90610b0d565b80601f01602080910402602001604051908101604052809291908181526020018280546102e690610b0d565b80156103335780601f1061030857610100808354040283529160200191610333565b820191906000526020600020905b81548152906001019060200180831161031657829003601f168201915b505050505081526020016002820160009054906101000a900460ff16151515158152505083838151811061036a57610369610aaf565b5b6020026020010181905250818061038090610b6d565b9250505b808061038f90610b6d565b915050610228565b5060008167ffffffffffffffff8111156103b4576103b3610627565b5b6040519080825280602002602001820160405280156103ed57816020015b6103da6105b8565b8152602001906001900390816103d25790505b50905060005b828110156104475783818151811061040e5761040d610aaf565b5b602002602001015182828151811061042957610428610aaf565b5b6020026020010181905250808061043f90610b6d565b9150506103f3565b5080935050505090565b3373ffffffffffffffffffffffffffffffffffffffff166001600084815260200190815260200160002060009054906101000a900473ffffffffffffffffffffffffffffffffffffffff1673ffffffffffffffffffffffffffffffffffffffff160361052e5780600083815481106104cc576104cb610aaf565b5b906000526020600020906003020160020160006101000a81548160ff0219169083151502179055507ff88a35c3d2016c409a46570b994a17b408dbc83c14a03f521512d50b85386d068282604051610525929190610bc4565b60405180910390a15b5050565b82805461053e90610b0d565b90600052602060002090601f01602090048101928261056057600085556105a7565b82601f1061057957805160ff19168380011785556105a7565b828001600101855582156105a7579182015b828111156105a657825182559160200191906001019061058b565b5b5090506105b491906105db565b5090565b604051806060016040528060008152602001606081526020016000151581525090565b5b808211156105f45760008160009055506001016105dc565b5090565b6000604051905090565b600080fd5b600080fd5b600080fd5b600080fd5b6000601f19601f8301169050919050565b7f4e487b7100000000000000000000000000000000000000000000000000000000600052604160045260246000fd5b61065f82610616565b810181811067ffffffffffffffff8211171561067e5761067d610627565b5b80604052505050565b60006106916105f8565b905061069d8282610656565b919050565b600067ffffffffffffffff8211156106bd576106bc610627565b5b6106c682610616565b9050602081019050919050565b82818337600083830152505050565b60006106f56106f0846106a2565b610687565b90508281526020810184848401111561071157610710610611565b5b61071c8482856106d3565b509392505050565b600082601f8301126107395761073861060c565b5b81356107498482602086016106e2565b91505092915050565b60008115159050919050565b61076781610752565b811461077257600080fd5b50565b6000813590506107848161075e565b92915050565b600080604083850312156107a1576107a0610602565b5b600083013567ffffffffffffffff8111156107bf576107be610607565b5b6107cb85828601610724565b92505060206107dc85828601610775565b9150509250929050565b600081519050919050565b600082825260208201905092915050565b6000819050602082019050919050565b6000819050919050565b61082581610812565b82525050565b600081519050919050565b600082825260208201905092915050565b60005b8381101561086557808201518184015260208101905061084a565b83811115610874576000848401525b50505050565b60006108858261082b565b61088f8185610836565b935061089f818560208601610847565b6108a881610616565b840191505092915050565b6108bc81610752565b82525050565b60006060830160008301516108da600086018261081c565b50602083015184820360208601526108f2828261087a565b915050604083015161090760408601826108b3565b508091505092915050565b600061091e83836108c2565b905092915050565b6000602082019050919050565b600061093e826107e6565b61094881856107f1565b93508360208202850161095a85610802565b8060005b8581101561099657848403895281516109778582610912565b945061098283610926565b925060208a0199505060018101905061095e565b50829750879550505050505092915050565b600060208201905081810360008301526109c28184610933565b905092915050565b6109d381610812565b81146109de57600080fd5b50565b6000813590506109f0816109ca565b92915050565b60008060408385031215610a0d57610a0c610602565b5b6000610a1b858286016109e1565b9250506020610a2c85828601610775565b9150509250929050565b600073ffffffffffffffffffffffffffffffffffffffff82169050919050565b6000610a6182610a36565b9050919050565b610a7181610a56565b82525050565b610a8081610812565b82525050565b6000604082019050610a9b6000830185610a68565b610aa86020830184610a77565b9392505050565b7f4e487b7100000000000000000000000000000000000000000000000000000000600052603260045260246000fd5b7f4e487b7100000000000000000000000000000000000000000000000000000000600052602260045260246000fd5b60006002820490506001821680610b2557607f821691505b602082108103610b3857610b37610ade565b5b50919050565b7f4e487b7100000000000000000000000000000000000000000000000000000000600052601160045260246000fd5b6000610b7882610812565b91507fffffffffffffffffffffffffffffffffffffffffffffffffffffffffffffffff8203610baa57610ba9610b3e565b5b600182019050919050565b610bbe81610752565b82525050565b6000604082019050610bd96000830185610a77565b610be66020830184610bb5565b939250505056fea26469706673582212201ba38023942715db541affdce339c112988fbcf32cc11a41b9121280446c482164736f6c634300080d0033",
  "linkReferences": {},
  "deployedLinkReferences": {}
}